093000011NA                O  00003205100000565000N000000000000002325C 
093000047ZAA              @   00000077300000097000N000000000000002492C 
093000077KAA               F  00000060000000097000N000000000000002560C 
093000107KAA              @   00000070000000097000N000000000000002580C 
093000116PAA                T 00000010000000096900N000000000000002599C 
093000116PAA                T 00000010000000096900N000000000000002600C 
093000116PAA                T 00000010000000096900N000000000000002601C 
093000117KAA               F  00000028700000097000N000000000000002603C 
093000127TAA               FT 00000020000000096900N000000000000002606C 
093000127TAA               FT 00000030000000096900N000000000000002607C 
093000127TAA               FT 00000010000000096900N000000000000002608C 
093000128TAA               FT 00000010000000096900N000000000000002609C 
093000128TAA               FT 00000010000000096900N000000000000002610C 
093000128TAA               FT 00000030000000096900N000000000000002611C 
093000128TAA               FT 00000010000000096900N000000000000002612C 
093000128TAA               FTI00000001300000096900N000000000000002613C 
093000162ZAA              @   00000010000000096900N000000000000002635C 
093000162ZAA              I   00000007200000096900N000000000000002636C 
093000162ZAA               F I00000001300000096900N000000000000002637C 
093000174ZAA               F I00000001500000096900N000000000000002638C 
093000174ZAA               F I00000008500000096900N000000000000002639C 
093000203ZAA               F I00000001500000096900N000000000000002645C 
093000274PAA               FT 00000010000000096800N000000000000002667C 
093000275PAA               FTI00000000800000096800N000000000000002668C 
093000285TAA               F  00000010000000096900N000000000000002670C 
093000285TAA              Q   00000010000000096900N000000000000002671C 
093000614ZAA               F  00000010000000096900N000000000000002838C 
093000489QAAIT            @O X00000011000000317500 000000000000009205N 
093000489QAAIT            Q   00000011000000317500 000000000000009206N 
093000405QAAL             @O X00008511900000259900 000000000000008990N 
093000405QAAL             Q   00008511900000259900 000000000000008991N 
093000137QAALC  P         @O X00000272100000258700 000000000000008430N 
093000137QAALC  P         Q   00000272100000258700 000000000000008431N 
093000553QAAME            @O I00000007900000040000 000000000000009367N 
093000553QAAME            Q   00000007900000040000 000000000000009368N 
093000008NAAN             O   00000718800000288900N000000000000002292C 
093000549QAAOI            @O X00000010500000151500 000000000000009362N 
093000549QAAOI            Q   00000010500000151500 000000000000009363N 
093000088QAAON            @O X00000026100000297000 000000000000008341N 
093000088QAAON            Q   00000026100000297000 000000000000008342N 
093000294PAAP               T 00000010000001089300N000000000000002706C 
093000294PAAP               TI00000008200001089300N000000000000002707C 
093000294PAAP               T 00000010000001089000N000000000000002708C 
093000294PAAP               T 00000051800001088800N000000000000002709C 
093000294PAAP               T 00000048200001088800N000000000000002710C 
093000294PAAP               TI00000001800001088500N000000000000002711C 
093000294TAAP               T 00000020000001089700N000000000000002712C 
093000294TAAP               T 00000020000001089700N000000000000002713C 
093000294TAAP               T 00000010000001089100N000000000000002714C 
093000298TAAP               T 00000020000001088500N000000000000002721C 
093000324ZAAP             @   00000020000001088500N000000000000002733C 
093000334TAAP              FT 00000010000001088300N000000000000002736C 
093000367CAAP             @   00000010000001087600N000000000000002738C 
093000474CAAP             @   00000020000001087600N000000000000002783C 
093000730TAAP              F  00000010000001085600N000000000000002851C 
093000730TAAP                Q00000010000001085600N000000000000002852C 
093000730PAAP                Q00000010000001088500N000000000000002853C 
093000730PAAP             @   00000010000001088500N000000000000002854C 
093000731TAAP              F I00000006200001084200N000000000000002855C 
093000731TAAP              F I00000003800001081500N000000000000002856C 
093000003QAAPL            @ TI00000001000005495500 000000000000008224N 
093000084QAAPL            @ TI00000009000005495500 000000000000008339N 
093000091QAAPL            @FTI00000006500005496100 000000000000008352N 
093000145QAAPL            @FTI00000003500005496100 000000000000008443N 
093000145QAAPL            @FTI00000004000005497000 000000000000008444N 
093000177QAAPL            @ TI00000001000005497000 000000000000008501N 
093000216PAAPL            @ TI00000003000005495900 000000000000008583N 
093000216PAAPL            @ TI00000002000005495350 000000000000008584N 
093000243PAAPL            @ TI00000003000005496200 000000000000008616N 
093000243PAAPL            @ TI00000007000005496300 000000000000008619N 
093000243PAAPL            @FTI00000006000005496300 000000000000008620N 
093000245PAAPL            @FT 00000010000005496400 000000000000008631N 
093000245PAAPL            @FTI00000004000005496400 000000000000008632N 
093000250QAAPL            @ TI00000004100005497000 000000000000008639N 
093000292QAAPL            T   00000010000005496100 000000000000008714N 
093000292QAAPL            T   00000010000005495900 000000000000008715N 
093000293ZAAPL            I   00000001800005497200 000000000000008716N 
093000294PAAPL            @FTI00000007000005496000 000000000000008717N 
093000294PAAPL            @FTI00000003000005495800 000000000000008718N 
093000309QAAPL            @O X00010215200005497000 000000000000008758N 
093000310QAAPL            Q   00010215200005497000 000000000000008759N 
093000318KAAPL            I   00000001000005495000 000000000000008764N 
093000319KAAPL                00000010000005494700 000000000000008766N 
093000321QAAPL            @F I00000001000005496900 000000000000008776N 
093000325ZAAPL                00000010000005496200 000000000000008788N 
093000325QAAPL            I   00000001000005496200 000000000000008790N 
093000327QAAPL            I   00000002000005496200 000000000000008791N 
093000328QAAPL            I   00000000500005496200 000000000000008792N 
093000329QAAPL            @F I00000000300005496200 000000000000008794N 
093000343QAAPL            @F I00000006200005496200 000000000000008832N 
093000344QAAPL            @F I00000001300005496200 000000000000008833N 
093000357DAAPL                00000010000005497500 000000000000008847NN
093000368QAAPL            @F I00000000500005496200 000000000000008876N 
093000368QAAPL            @F I00000009500005496000 000000000000008877N 
093000368KAAPL                00000010000005497400 000000000000008882N 
093000369DAAPL            I   00000000500005497500 000000000000008887NQ
093000372PAAPL            T   00000010000005497000 000000000000008906N 
093000376KAAPL            I   00000001800005497500 000000000000008913N 
093000387DAAPL                00000010000005496750 000000000000008931NQ
093000394ZAAPL            @F  00000010000005496000 000000000000008952N 
093000395QAAPL            @F I00000000500005496000 000000000000008956N 
093000395QAAPL            @F I00000001900005496000 000000000000008957N 
093000396PAAPL            @FTI00000009000005495800 000000000000008958N 
093000397QAAPL            @F I00000002000005495800 000000000000008959N 
093000401QAAPL            @F  00000013100005495600 000000000000008980N 
093000414QAAPL            @F I00000006900005495600 000000000000009005N 
093000414QAAPL            @F I00000001000005495500 000000000000009006N 
093000414QAAPL            @F I00000001100005495200 000000000000009007N 
093000414QAAPL            @F I00000001000005495100 000000000000009008N 
093000417PAAPL            @FTI00000006000005494400 000000000000009021N 
093000428QAAPL            I   00000001000005495100 000000000000009054N 
093000429QAAPL            I   00000001000005495100 000000000000009055N 
093000429QAAPL            @F I00000004000005495100 000000000000009058N 
093000429QAAPL            @F I00000000600005495000 000000000000009059N 
093000429QAAPL            @F I00000002500005495000 000000000000009060N 
093000429QAAPL            @F I00000001000005495000 000000000000009061N 
093000429QAAPL            @F I00000001900005495000 000000000000009062N 
093000435QAAPL            @F I00000000800005495000 000000000000009072N 
093000448QAAPL            @F  00000010000005495900 000000000000009119N 
093000449QAAPL            @F  00000010000005496000 000000000000009120N 
093000449QAAPL            @F  00000010000005496000 000000000000009121N 
093000467KAAPL            @F  00000010000005497400 000000000000009153N 
093000468QAAPL            @F I00000004200005496000 000000000000009154N 
093000468QAAPL            I   00000005400005495000 000000000000009155N 
093000468QAAPL            I   00000001500005495000 000000000000009156N 
093000468QAAPL            I   00000001000005495000 000000000000009157N 
093000468QAAPL            I   00000000200005495000 000000000000009158N 
093000468QAAPL            I   00000000100005495000 000000000000009159N 
093000469QAAPL            I   00000005000005495000 000000000000009160N 
093000469QAAPL            I   00000002100005495000 000000000000009161N 
093000469QAAPL            I   00000002000005495000 000000000000009162N 
093000469QAAPL            I   00000002500005495000 000000000000009163N 
093000469QAAPL            I   00000000200005495000 000000000000009164N 
093000478QAAPL            I   00000001800005495000 000000000000009175N 
093000478QAAPL            I   00000000500005495000 000000000000009176N 
093000489KAAPL            @F I00000001400005497400 000000000000009211N 
093000504BAAPL            I   00000002500005497000 000000000000009240N 
093000505DAAPL                00000010000005496000 000000000000009243NQ
093000507DAAPL                00000010000005495000 000000000000009248NQ
093000508QAAPL            @F  00000010000005494900 000000000000009253N 
093000512PAAPL            @FTI00000001000005494500 000000000000009258N 
093000512PAAPL            @FTI00000009000005494400 000000000000009259N 
093000537QAAPL            I   00000002000005494900 000000000000009321N 
093000542DAAPL                00000010000005495850 000000000000009341NQ
093000569QAAPL            I   00000000300005495700 000000000000009412N 
093000578QAAPL            I   00000002300005494900 000000000000009427N 
093000584QAAPL            I   00000001000005494900 000000000000009451N 
093000586PAAPL            @FTI00000001000005494400 000000000000009452N 
093000586QAAPL            I   00000003200005494900 000000000000009453N 
093000588QAAPL            @F I00000005000005494900 000000000000009459N 
093000616PAAPL            @FT 00000010000005493100 000000000000009533N 
093000630QAAPL            @F I00000000500005495700 000000000000009576N 
093000636QAAPL            I   00000002000005494900 000000000000009584N 
093000638QAAPL            I   00000000300005494900 000000000000009589N 
093000639QAAPL            I   00000000200005494900 000000000000009597N 
093000641QAAPL            I   00000001000005494900 000000000000009598N 
093000646QAAPL            I   00000005000005494900 000000000000009602N 
093000654PAAPL            @ TI00000000500005493100 000000000000009621N 
093000654PAAPL            @ TI00000000400005493100 000000000000009622N 
093000654PAAPL            @ TI00000000800005493100 000000000000009623N 
093000654KAAPL            I   00000001700005495700 000000000000009624N 
093000654PAAPL            @ TI00000001000005493100 000000000000009625N 
093000654PAAPL            @ TI00000000500005493100 000000000000009626N 
093000655KAAPL            @F  00000018300005495700 000000000000009630N 
093000659QAAPL            I   00000002000005494900 000000000000009636N 
093000660QAAPL            I   00000001000005494900 000000000000009643N 
093000660QAAPL            I   00000000100005494400 000000000000009644N 
093000662QAAPL            I   00000000900005494400 000000000000009651N 
093000662QAAPL            I   00000000800005494100 000000000000009652N 
093000664QAAPL            I   00000000200005494100 000000000000009656N 
093000664QAAPL            I   00000000100005494000 000000000000009657N 
093000666QAAPL            I   00000000100005494000 000000000000009666N 
093000673KAAPL            I   00000005000005495700 000000000000009684N 
093000673QAAPL            I   00000000100005494000 000000000000009685N 
093000686PAAPL            Q   00000000800005493100 000000000000009727N 
093000686PAAPL            I   00000000800005493100 000000000000009728N 
093000686PAAPL            I   00000004900005493100 000000000000009729N 
093000686DAAPL                00000010000005495700 000000000000009730NQ
093000698QAAPL            I   00000000500005494000 000000000000009735N 
093000721QAAPL            I   00000001000005494000 000000000000009751N 
093000724DAAPL            I   00000001000005494900 000000000000009752NQ
093000728QAAPL            I   00000000100005494000 000000000000009756N 
093000728QAAPL            I   00000001000005494000 000000000000009757N 
093000729QAAPL            I   00000000200005493800 000000000000009758N 
093000729QAAPL            I   00000000200005493100 000000000000009759N 
093000729QAAPL            I   00000000300005493100 000000000000009760N 
093000730QAAPL            I   00000001000005493100 000000000000009761N 
093000733KAAPL                00000010000005491900 000000000000009764N 
093000734YAAPL            I   00000008400005495400 000000000000009765N 
093000739QAAPL            I   00000002100005493100 000000000000009766N 
093000740QAAPL            I   00000000800005493100 000000000000009767N 
093000740QAAPL            I   00000000200005493000 000000000000009768N 
093000752DAAPL            I   00000006200005495900 000000000000009771NQ
093000761QAAPL            @F  00000010000005493300 000000000000009775N 
093000761QAAPL            @F I00000000200005493100 000000000000009776N 
093000761QAAPL            @F  00000020000005493100 000000000000009777N 
093000763KAAPL            @F  00000010000005491900 000000000000009779N 
093000763PAAPL            @F I00000001100005493100 000000000000009780N 
093000763PAAPL            @F  00000034800005492000 000000000000009781N 
093000764KAAPL            @F  00000010000005491800 000000000000009782N 
093000780DAAPL            I   00000000600005494500 000000000000009783NQ
093000782PAAPL            I   00000005000005493100 000000000000009784N 
093000782PAAPL            I   00000002500005493100 000000000000009785N 
093000782PAAPL            @F I00000002500005493100 000000000000009786N 
093000787DAAPL            I   00000000200005491000 000000000000009787NQ
093000791PAAPL            @F  00000010000005493100 000000000000009790N 
093000795PAAPL            I   00000004900005493100 000000000000009796N 
093000803DAAPL            I   00000009400005494500 000000000000009800NQ
093000804BAAPL            I   00000000600005495700 000000000000009801N 
093000816DAAPL            I   00000005800005491000 000000000000009803NQ
093000817QAAPL            I   00000000800005493000 000000000000009804N 
093000817QAAPL            I   00000000100005492500 000000000000009805N 
093000817QAAPL            I   00000001500005492500 000000000000009806N 
093000817QAAPL            I   00000001800005492200 000000000000009807N 
093000831PAAPL            I   00000005100005493100 000000000000009809N 
093000833BAAPL            I   00000000800005492200 000000000000009810N 
093000844KAAPL            @F I00000004700005495800 000000000000009811N 
093000854QAAPL            I   00000001700005492200 000000000000009814N 
093000854QAAPL            I   00000001000005492100 000000000000009815N 
093000854QAAPL            I   00000000500005492000 000000000000009816N 
093000854QAAPL            I   00000001800005492000 000000000000009817N 
093000855QAAPL            I   00000000200005492000 000000000000009818N 
093000855QAAPL            I   00000009800005492000 000000000000009819N 
093000858DAAPL                00000010000005493179 000000000000009821NN
093000858DAAPL                00000010000005493147 000000000000009822NN
093000861DAAPL                00000010000005496000 000000000000009824NQ
093000864DAAPL            I   00000000600005491000 000000000000009825NQ
093000866QAAPL            I   00000000200005492000 000000000000009826N 
093000866QAAPL            I   00000004000005492000 000000000000009827N 
093000866QAAPL            I   00000000100005491700 000000000000009828N 
093000882PAAPL                00000010000005492000 000000000000009834N 
093000882ZAAPL            I   00000005600005495400 000000000000009835N 
093000884DAAPL            I   00000002300005494900 000000000000009836NQ
093000908DAAPL            I   00000003200005494900 000000000000009841NQ
093000909DAAPL                00000010000005491350 000000000000009842NQ
093000914DAAPL                00000010000005491350 000000000000009843NQ
093000915DAAPL                00000010000005491350 000000000000009844NQ
093000932KAAPL                00000010000005495800 000000000000009845N 
093000939DAAPL            @  I00000001100005495275 000000000000009848NQ
093000939QAAPL            @F I00000003000005491700 000000000000009849N 
093000939QAAPL            @F I00000005000005493300 000000000000009850N 
093000939QAAPL            @F I00000006900005491700 000000000000009851N 
093000939QAAPL            @F I00000005600005491500 000000000000009852N 
093000939QAAPL            @F I00000001000005491500 000000000000009853N 
093000939QAAPL            @F I00000008700005491500 000000000000009854N 
093000939QAAPL            @F I00000002500005491400 000000000000009855N 
093000939QAAPL            @F I00000000100005491200 000000000000009856N 
093000939QAAPL            @F I00000008700005491200 000000000000009857N 
093000939BAAPL            @F  00000010000005491500 000000000000009858N 
093000939YAAPL            I   00000000100005491600 000000000000009859N 
093000939ZAAPL            @F I00000004400005495400 000000000000009860N 
093000939ZAAPL            @F I00000005600005495500 000000000000009861N 
093000940ZAAPL            @F I00000004400005495500 000000000000009862N 
093000940ZAAPL            @F I00000002600005495800 000000000000009863N 
093000940ZAAPL            @F I00000007400005495800 000000000000009864N 
093000940ZAAPL            @F I00000002600005495900 000000000000009865N 
093000940ZAAPL            @F I00000007400005495900 000000000000009866N 
093000940ZAAPL            @F I00000001800005495500 000000000000009867N 
093000940QAAPL            I   00000001000005491600 000000000000009868N 
093000941PAAPL            I   00000004200005492000 000000000000009869N 
093000941QAAPL            @F I00000009000005491600 000000000000009870N 
093000941QAAPL            @F I00000001000005491200 000000000000009871N 
093000941ZAAPL            @F I00000005000005495400 000000000000009872N 
093000950DAAPL            I   00000001000005491700 000000000000009873NQ
093000955KAAPL            @F  00000010000005495700 000000000000009874N 
093000955DAAPL            I   00000003000005493100 000000000000009875NQ
093000956KAAPL            @F  00000010000005495700 000000000000009876N 
093000956KAAPL            @F  00000010000005495700 000000000000009878N 
093000957KAAPL            @F I00000003600005495900 000000000000009880N 
093000966QAAPL            @F I00000000500005493500 000000000000009882N 
093000969ZAAPL                00000010000005491400 000000000000009883N 
093000977QAAPL            I   00000005000005492100 000000000000009887N 
093000977QAAPL                00000010000005491400 000000000000009888N 
093000977QAAPL            I   00000000600005491200 000000000000009889N 
093000977QAAPL                00000014400005491100 000000000000009890N 
093000981ZAAPL                00000010000005491100 000000000000009891N 
093000985DAAPL            @  I00000006000005494535 000000000000009896NQ
093000995DAAPL            @  I00000005000005494535 000000000000009901NQ
093000007NAAT             O   00000155900000313200N000000000000002281C 
093000014AAAU             O   00000010000000010800N000000000000000895C 
093000009NAAV             O   00000133200000042400N000000000000002309C 
093000106KAAV              F  00000110000000042500N000000000000002577C 
093000611QAAWW            @O X00000096800000377100 000000000000009522N 
093000612QAAWW            Q   00000096800000377100 000000000000009523N 
093000600QAAXJ            @O X00000324900000591100 000000000000009497N 
093000600QAAXJ            Q   00000324900000591100 000000000000009498N 
093000888PAAXJ            Q   00000010000000591900 000000000000009837N 
093000888PAAXJ                00000010000000591900 000000000000009838N 
093000006NAB              O   00000760600000211800N000000000000002275C 
093000097DAB               4 I00000001400000211800N000000000000002572CT
093000432NAB               F  00000010000000211800N000000000000002773C 
093000433NAB              @   00000012000000211800N000000000000002774C 
093000373QABAX            @O X00000059100000370000 000000000000008907N 
093000373QABAX            Q   00000059100000370000 000000000000008908N 
093000007PABB               TI00000006200000252300N000000000000002285C 
093000027ZABB             @   00000020000000252300N000000000000002474C 
093000034ZABB             @   00000020000000252300N000000000000002487C 
093000036ZABB             @   00000020000000252300N000000000000002488C 
093000038ZABB             @   00000020000000252300N000000000000002489C 
093000040ZABB             @   00000030000000252300N000000000000002490C 
093000082TABB               TI00000005300000252300N000000000000002561C 
093000301PABB             T   00000010000000252300N000000000000002724C 
093000301ZABB             @   00000050600000252300N000000000000002725C 
093000302TABB             T   00000030000000252300N000000000000002726C 
093000305KABB             @   00000010000000252300N000000000000002729C 
093000374TABB               TI00000004800000252300N000000000000002742C 
093000014NABC              O  00002129500000686000N000000000000002363C 
093000146DABC                I00000000100000683700N000000000000002630CT
093000347QABCB            @O X00000033000000200800 000000000000008837N 
093000347QABCB            Q   00000033000000200800 000000000000008838N 
093000648QABCO            @O X00000061900000632500 000000000000009607N 
093000648QABCO            Q   00000061900000632500 000000000000009608N 
093000282QABFS            @O X00000101100000332700 000000000000008685N 
093000282QABFS            Q   00000101100000332700 000000000000008687N 
093000505QABGB            @O X00000071000000137500 000000000000009241N 
093000505QABGB            Q   00000071000000137500 000000000000009242N 
093000486QABIO            @O X00000380000000015700 000000000000009193N 
093000486QABIO            Q   00000380000000015700 000000000000009194N 
093000299QABMD            @O X00000029500000265100 000000000000008728N 
093000299QABMD            Q   00000029500000265100 000000000000008729N 
093000007NABR             O   00000245500000065600N000000000000002277C 
093000179DABR              4  00000029400000065600N000000000000002641CT
093000192DABR              4  00000020600000065600N000000000000002643CT
093000071QABTL            @O X00000338800000124700 000000000000008310N 
093000071QABTL            Q   00000338800000124700 000000000000008311N 
093000112PABX             T   00000010000000171800N000000000000002595C 
093000139TABX              F  00000010000000171900N000000000000002618C 
093000139TABX             Q   00000010000000171900N000000000000002619C 
093000141PABX               TI00000000100000171700N000000000000002622C 
093000150TABX             @   00000010000000171700N000000000000002633C 
093000150TABX             I   00000000100000171700N000000000000002634C 
093000193PABX             T   00000010000000171700N000000000000002644C 
093000243PABX               TI00000000100000171700N000000000000002658C 
093000254PABX              FTI00000009900000171800N000000000000002662C 
093000889ZABX              F  00000010000000171700N000000000000002868C 
093000389QACAD            @O X00000514900000230200 000000000000008936N 
093000389QACAD            Q   00000514900000230200 000000000000008937N 
093000577QACAS            @O X00001439900000146100 000000000000009422N 
093000577QACAS            Q   00001439900000146100 000000000000009423N 
093000505QACAT            @O X00000292700000536100 000000000000009245N 
093000505QACAT            Q   00000292700000536100 000000000000009246N 
093000664QACCL            @O X00000043500000093300 000000000000009658N 
093000664QACCL            Q   00000043500000093300 000000000000009659N 
093000424TACE              O X00000040000000989900N000000000000002763C 
093000424TACE             Q   00000040000000989900N000000000000002764C 
093000681QACET            @O X00000197400000225000 000000000000009721N 
093000681QACET            Q   00000197400000225000 000000000000009722N 
093000759QACET                00000020000000226900 000000000000009774N 
093000441QACFN            @O X00000063100000035500 000000000000009091N 
093000441QACFN            Q   00000063100000035500 000000000000009092N 
093000059QACGL            @O X00000482000000571100 000000000000008278N 
093000060QACGL            Q   00000482000000571100 000000000000008281N 
093000547QACHC            @O X00000845000000471000 000000000000009356N 
093000547QACHC            Q   00000845000000471000 000000000000009357N 
093000595QACHN            @O X00000535000000030400 000000000000009479N 
093000595QACHN            Q   00000535000000030400 000000000000009480N 
093000014NACI              O  00002573200000041100N000000000000002357C 
093000605NACI             I   00000007500000041100N000000000000002831C 
093000165QACIW            @O X00000133200000628000 000000000000008477N 
093000166QACIW            Q   00000133200000628000 000000000000008478N 
093000266QACIW            I   00000003500000628900 000000000000008670N 
093000603QACLS            @O X00001528300000022500 000000000000009500N 
093000603QACLS            Q   00001528300000022500 000000000000009501N 
093000008NACM             O   00000711500000278500N000000000000002290C 
093000028NACM             I   00000001000000278400N000000000000002483C 
093000004NACMP             O  00000099900000510200N000000000000002263C 
093000605QACNB            @O X00000021200000181700 000000000000009503N 
093000605QACNB            Q   00000021200000181700 000000000000009504N 
093000636QACOR            @O X00000232500000295300 000000000000009582N 
093000636QACOR            Q   00000232500000295300 000000000000009583N 
093000639KACOR                00000010000000295300 000000000000009592N 
093000006NACP             O   00000741600000171400N000000000000002271C 
093000554QACPW            @O X00000184000000029900 000000000000009376N 
093000554QACPW            Q   00000184000000029900 000000000000009377N 
093000554QACPW                00000010000000030000 000000000000009378N 
093000008NACRE             O  00000050000000129300N000000000000002296C 
093000208DACRE            @   00000010000000129750N000000000000002648CT
093000220YACRE            @   00000010000000129600N000000000000002651C 
093000221NACRE            @   00000020000000129700N000000000000002653C 
093000221NACRE            @   00000020000000129800N000000000000002654C 
093000215QACRX            @O X00000929500000095400 000000000000008578N 
093000215QACRX            Q   00000929500000095400 000000000000008580N 
093000539QACST            @O X00000100000000012900 000000000000009327N 
093000539QACST            Q   00000100000000012900 000000000000009328N 
093000293PACT             T   00000010000001605000N000000000000002705C 
093000415QACTG            @O X00000512700000132100 000000000000009012N 
093000415QACTG            Q   00000512700000132100 000000000000009013N 
093000610QACTG            I   00000008000000132000 000000000000009520N 
093000434QACTS            @O X00000025000000028600 000000000000009068N 
093000434QACTS            Q   00000025000000028600 000000000000009069N 
093000417QACUR            @O X00000100000000015200 000000000000009020N 
093000417QACUR            Q   00000100000000015200 000000000000009022N 
093000006NACW             O   00000320800000036100N000000000000002267C 
093000184PACWI            T   00000010500000555000 000000000000008509N 
093000362QACWI            @O X00000813800000554500 000000000000008854N 
093000362QACWI            Q   00000813800000554500 000000000000008855N 
093000799ZACWI            @F  00000010000000554500 000000000000009797N 
093000802PACWI            Q   00000007500000554500 000000000000009798N 
093000802PACWI            I   00000007500000554500 000000000000009799N 
093000371PACWV             O I00000009000000621500N000000000000001032C 
093000371PACWV             O  00000013600000621500N000000000000001033C 
093000371PACWV             O I00000004100000621500N000000000000001035C 
093000371PACWV             O I00000000200000621500N000000000000001036C 
093000371PACWV             O I00000000200000621500N000000000000001037C 
093000371PACWV             O I00000000200000621500N000000000000001038C 
093000371PACWV             O I00000000200000621500N000000000000001039C 
093000371PACWV               Q00000027500000621500N000000000000001040C 
093000647QACWX            @O X00000103700000449100 000000000000009604N 
093000647QACWX            Q   00000103700000449100 000000000000009605N 
093000316QACXM            @O X00000141500000373600 000000000000008762N 
093000320QACXM            Q   00000141500000373600 000000000000008768N 
093000014AACY             O   00000030000000167800N000000000000000898C 
093000076QADAT            @O X00001837300000014500 000000000000008321N 
093000076QADAT            Q   00001837300000014500 000000000000008323N 
093000006QADBE            @ TI00000000200000575500 000000000000008228N 
093000494QADBE            T   00000040000000575500 000000000000009220N 
093000504QADBE            @O X00004517300000575800 000000000000009237N 
093000504QADBE            Q   00004517300000575800 000000000000009238N 
093000518QADBE            I   00000000300000575900 000000000000009273N 
093000518QADBE                00000010000000575900 000000000000009274N 
093000518QADBE            I   00000009700000575900 000000000000009275N 
093000524TADC              O X00000010000000282300N000000000000002792C 
093000524TADC                Q00000010000000282300N000000000000002793C 
093000588NADC              O  00000431200000279700N000000000000002802C 
093000438QADEP            @O X00000910200000132000 000000000000009080N 
093000438QADEP            Q   00000910200000132000 000000000000009082N 
093000537QADES            @O X00000021300000539000 000000000000009322N 
093000538QADES            Q   00000021300000539000 000000000000009324N 
093000660QADHD            @O X00000441000000190000 000000000000009642N 
093000660QADHD            Q   00000441000000190000 000000000000009645N 
093000097QADI             @O X00001595400000489000 000000000000008367N 
093000097QADI             Q   00001595400000489000 000000000000008370N 
093000014AADK   PRA        O  00000040000000259100N000000000000000901C 
093000149TADM              O X00000010000000416700N000000000000002631C 
093000149TADM             Q   00000010000000416700N000000000000002632C 
093000070QADMP            @O X00000047500000059500 000000000000008308N 
093000070QADMP            Q   00000047500000059500 000000000000008309N 
093000579QADNC            @O X00000090300000113200 000000000000009432N 
093000579QADNC            Q   00000090300000113200 000000000000009434N 
093000006PADP             @ TI00000000200000777500 000000000000008229N 
093000014QADP             T   00000010000000774300 000000000000008242N 
093000064PADP             @ TI00000000700000777500 000000000000008288N 
093000082QADP             T   00000010000000774300 000000000000008336N 
093000147QADP             T   00000010000000772900 000000000000008450N 
093000150PADP             @ TI00000004400000777500 000000000000008455N 
093000321QADP             @O X00003981000000777200 000000000000008775N 
093000323QADP             Q   00003981000000777200 000000000000008785N 
093000339QADP             @F I00000004000000772400 000000000000008822N 
093000376DADP                 00000010000000772800 000000000000008914NQ
093000517DADP                 00000010000000775100 000000000000009272NQ
093000708BADP             I   00000000700000777400 000000000000009742N 
093000335QADRD            @O X00000069900000241800 000000000000008810N 
093000336QADRD            Q   00000069900000241800 000000000000008814N 
093000625QADRE            @O X00000023100000366200 000000000000009566N 
093000625QADRE            Q   00000023100000366200 000000000000009568N 
093000391QADSK            @O X00002568300000473400 000000000000008939N 
093000391QADSK            Q   00002568300000473400 000000000000008940N 
093000010NADT              O  00002093800000396000N000000000000002313C 
093000087NADT             I   00000005000000396700N000000000000002563C 
093000195QADTN            @O X00000254700000262600 000000000000008548N 
093000195QADTN            Q   00000254700000262600 000000000000008549N 
093000000QADUS            @ TI00000000500000229300 000000000000008212N 
093000544QADUS            @O X00001099500000229000 000000000000009349N 
093000544QADUS            Q   00001099500000229000 000000000000009350N 
093000596QADVS            @O X00000815900000341800 000000000000009486N 
093000596QADVS            Q   00000815900000341800 000000000000009487N 
093000007NADX             O   00000164400000124400N000000000000002279C 
093000320QADXS            @O X00000100600000043200 000000000000008772N 
093000323QADXS            Q   00000100600000043200 000000000000008782N 
093000015AAE              O   00000010400000605400N000000000000000904C 
093000009NAEC             O   00000695300000158700N000000000000002307C 
093000427DAEC             @   00000010000000157800N000000000000002766CT
093000627KAEC              F I00000008400000157700N000000000000002842C 
093000000QAEGN            @ TI00000000500000201500 000000000000008211N 
093000306QAEGN            @O X00000897900000201500 000000000000008749N 
093000306QAEGN            Q   00000897900000201500 000000000000008751N 
093000307QAEGN                00000010000000201500 000000000000008752N 
093000307QAEGN                00000010000000201500 000000000000008754N 
093000332KAEGN            @F  00000060000000203000 000000000000008802N 
093000334KAEGN            @F I00000005000000203000 000000000000008808N 
093000988QAEGN            @F  00000010000000201500 000000000000009897N 
093000243QAEGR            @O X00000291700000654600 000000000000008617N 
093000243QAEGR            Q   00000291700000654600 000000000000008618N 
093000670BAEGR                00000010000000649800 000000000000009675N 
093000977QAEGR                00000010000000658200 000000000000009884N 
093000977QAEGR                00000012000000658900 000000000000009885N 
093000977QAEGR            I   00000006000000659200 000000000000009886N 
093000369QAEIS            @O X00000248100000218700 000000000000008888N 
093000369QAEIS            Q   00000248100000218700 000000000000008889N 
093000615PAEIS            @FT 00000010000000219500 000000000000009530N 
093000012NAEL             O   00000373100000245500N000000000000002339C 
093000015TAEM             T   00000030000000262200N000000000000002377C 
093000016TAEM               TI00000004700000262300N000000000000002378C 
093000016NAEM              O  00001289800000262500N000000000000002381C 
093000017TAEM              FTI00000004300000262300N000000000000002395C 
093000027TAEM              FT 00000020000000262200N000000000000002475C 
093000027TAEM              FT 00000020000000262200N000000000000002476C 
093000028TAEM              FT 00000010000000262300N000000000000002480C 
093000028TAEM              FT 00000010000000262300N000000000000002481C 
093000028TAEM              FTI00000005700000262300N000000000000002482C 
093000094PAEM              FT 00000010000000262500N000000000000002565C 
093000094PAEM              FT 00000010000000262500N000000000000002566C 
093000096PAEM              FT 00000010000000262500N000000000000002567C 
093000097TAEM              FT 00000030000000261600N000000000000002568C 
093000097TAEM              FT 00000030000000261600N000000000000002569C 
093000097TAEM              FT 00000010000000261600N000000000000002570C 
093000097TAEM              FT 00000010000000261500N000000000000002571C 
093000098TAEM              FT 00000010000000261600N000000000000002573C 
093000105TAEM              FT 00000010000000261500N000000000000002575C 
093000117TAEM              FT 00000010000000262100N000000000000002602C 
093000124DAEM             @   00000010000000262500N000000000000002605CT
093000135TAEM              FT 00000010000000261600N000000000000002614C 
093000136TAEM              FT 00000040000000261500N000000000000002615C 
093000145TAEM              FT 00000030000000261600N000000000000002627C 
093000146TAEM              FT 00000010000000261600N000000000000002628C 
093000295PAEM              FT 00000010000000262100N000000000000002716C 
093000295PAEM              FT 00000010000000262200N000000000000002717C 
093000295PAEM               T 00000010000000262200N000000000000002718C 
093000295NAEM             @   00000010000000262100N000000000000002719C 
093000296YAEM             @   00000010000000262100N000000000000002720C 
093000298TAEM             T   00000010000000261600N000000000000002722C 
093000300TAEM             T   00000010000000261600N000000000000002723C 
093000304PAEM             T   00000020000000262200N000000000000002728C 
093000315TAEM             T   00000020000000261600N000000000000002732C 
093000369PAEM              FT 00000020000000261800N000000000000002739C 
093000399PAEM              FT 00000010000000261800N000000000000002759C 
093000016NAEO              O  00003101600000140900N000000000000002389C 
093000622KAEO              F I00000005000000141200N000000000000002841C 
093000288TAEP               TI00000000300000460100N000000000000002689C 
093000295TAEP               TI00000009700000460100N000000000000002715C 
093000168QAEPI            @O X00000161400000488700 000000000000008486N 
093000168QAEPI            Q   00000161400000488700 000000000000008487N 
093000007NAER              O  00001578200000345400N000000000000002286C 
093000030NAER             I   00000000500000345100N000000000000002484C 
093000046DAER             @   00000010000000345027N000000000000002491CN
093000430NAER             @   00000010000000345900N000000000000002767C 
093000189QAERI            @O X00000041600000158300 000000000000008527N 
093000189QAERI            Q   00000041600000158300 000000000000008528N 
093000258TAES              O X00000020000000140500N000000000000002664C 
093000258TAES             Q   00000020000000140500N000000000000002665C 
093000588NAET              O  00003127300000659700N000000000000002800C 
093000664KAET             @   00000010000000658800N000000000000002847C 
093000542QAETI            @O X00000080900000087600 000000000000009342N 
093000542QAETI            Q   00000080900000087600 000000000000009344N 
093000622QAEY             @O X00000600000000025000 000000000000009558N 
093000622QAEY             Q   00000600000000025000 000000000000009559N 
093000578QAEZS            @O X00000892200000012200 000000000000009424N 
093000578QAEZS            Q   00000892200000012200 000000000000009426N 
093000005NAF              O   00000491900000134700N000000000000002264C 
093000010NAF    PRC        O  00000010200000222500N000000000000002317C 
093000625QAFAM            @O X00000044400000322700 000000000000009567N 
093000626QAFAM            Q   00000044400000322700 000000000000009569N 
093000626QAFAM            I   00000005000000323500 000000000000009570N 
093000110QAFCB            @O X00000020000000205900 000000000000008382N 
093000110QAFCB            Q   00000020000000205900 000000000000008383N 
093000275QAFCE            @O X00000066900000388000 000000000000008676N 
093000275QAFCE            Q   00000066900000388000 000000000000008677N 
093000424QAFFX            @O X00000488700000083700 000000000000009045N 
093000424QAFFX            Q   00000488700000083700 000000000000009047N 
093000676QAFFX            I   00000007000000083500 000000000000009689N 
093000033TAFG             T   00000010000000552900N000000000000002486C 
093000489QAFH             @O X00000039600000129800 000000000000009207N 
093000489QAFH             Q   00000039600000129800 000000000000009208N 
093000371PAFK              O I00000009100000305200N000000000000001041C 
093000371PAFK              O  00000070000000305200N000000000000001042C 
093000372PAFK              O  00000047500000305200N000000000000001044C 
093000372PAFK              O  00000100000000305200N000000000000001045C 
093000372PAFK              O I00000000700000305200N000000000000001046C 
093000372PAFK              O  00000010000000305200N000000000000001047C 
093000372PAFK              O  00000010000000305200N000000000000001048C 
093000372PAFK              O  00000010000000305200N000000000000001049C 
093000372PAFK              O  00000010000000305200N000000000000001050C 
093000372PAFK              O  00000020000000305200N000000000000001051C 
093000372PAFK              O I00000000200000305200N000000000000001052C 
093000372PAFK              O I00000009800000305200N000000000000001053C 
093000372PAFK              O I00000000200000305200N000000000000001054C 
093000372PAFK                Q00000297500000305200N000000000000001055C 
093000008NAFM             O   00000018500000252800N000000000000002294C 
093000542QAFOP            @O X00000176300000146400 000000000000009335N 
093000542QAFOP            Q   00000176300000146400 000000000000009336N 
093000006NAFSD             O  00000059000000211600N000000000000002273C 
093000001QAFSI            @ TI00000000500000327000 000000000000008219N 
093000001QAFSI            @ TI00000000500000327000 000000000000008220N 
093000487QAFSI            @O X00001213300000327000 000000000000009198N 
093000487QAFSI            Q   00001213300000327000 000000000000009199N 
093000009NAFW             O   00000019300000232400N000000000000002305C 
093000008NAG              O   00000920200000095600N000000000000002288C 
093000017NAGC             O   00000838100000071000N000000000000002398C 
093000017NAGCO             O  00001749700000575200N000000000000002393C 
093000220NAGCO            @   00000010000000575800N000000000000002650C 
093000663QAGEN            @O X00001780800000027600 000000000000009653N 
093000663QAGEN            Q   00001780800000027600 000000000000009654N 
093000372PAGG              O I00000004500001068000N000000000000001056C 
093000372PAGG              O I00000001400001068000N000000000000001057C 
093000372PAGG              O I00000001800001068000N000000000000001058C 
093000372PAGG              O I00000001500001068000N000000000000001059C 
093000372PAGG              O I00000000800001068000N000000000000001060C 
093000373PAGG              O I00000000100001068000N000000000000001061C 
093000373PAGG              O I00000000100001068000N000000000000001062C 
093000373PAGG              O I00000000700001068000N000000000000001063C 
093000373PAGG              O I00000000100001068000N000000000000001064C 
093000373PAGG              O I00000000600001068000N000000000000001065C 
093000373PAGG              O  00000013600001068000N000000000000001066C 
093000373PAGG              O I00000000200001068000N000000000000001068C 
093000373PAGG              O I00000003000001068000N000000000000001069C 
093000373PAGG              O  00000030400001068000N000000000000001070C 
093000373PAGG              O  00000079500001068000N000000000000001071C 
093000373PAGG              O  00000088700001068000N000000000000001072C 
093000373PAGG              O I00000002400001068000N000000000000001073C 
093000373PAGG              O  00000032100001068000N000000000000001074C 
093000373PAGG              O I00000005800001068000N000000000000001075C 
093000373PAGG              O I00000000100001068000N000000000000001076C 
093000373PAGG              O I00000001500001068000N000000000000001077C 
093000373PAGG              O I00000001100001068000N000000000000001078C 
093000373PAGG              O I00000004800001068000N000000000000001079C 
093000373PAGG              O I00000000200001068000N000000000000001080C 
093000373PAGG              O  00000038000001068000N000000000000001081C 
093000373PAGG              O I00000000600001068000N000000000000001082C 
093000374PAGG              O  00000016400001068000N000000000000001083C 
093000374PAGG              O I00000000900001068000N000000000000001084C 
093000374PAGG              O  00000031000001068000N000000000000001085C 
093000374PAGG              O I00000009500001068000N000000000000001086C 
093000374PAGG              O  00000016500001068000N000000000000001087C 
093000374PAGG              O I00000002000001068000N000000000000001088C 
093000374PAGG              O I00000002000001068000N000000000000001089C 
093000374PAGG              O I00000009300001068000N000000000000001090C 
093000374PAGG              O I00000000200001068000N000000000000001091C 
093000374PAGG              O  00000044000001068000N000000000000001092C 
093000374PAGG              O  00000010200001068000N000000000000001093C 
093000374PAGG              O I00000002200001068000N000000000000001094C 
093000374PAGG              O I00000003600001068000N000000000000001095C 
093000374PAGG              O  00000031500001068000N000000000000001096C 
093000374PAGG              O I00000000200001068000N000000000000001097C 
093000374PAGG              O  00000102800001068000N000000000000001098C 
093000374PAGG              O I00000000100001068000N000000000000001099C 
093000374PAGG              O  00000051800001068000N000000000000001100C 
093000374PAGG              O  00000062400001068000N000000000000001101C 
093000374PAGG              O I00000002800001068000N000000000000001102C 
093000374PAGG              O  00000153600001068000N000000000000001103C 
093000374PAGG              O I00000001300001068000N000000000000001104C 
093000374PAGG              O I00000001300001068000N000000000000001105C 
093000374PAGG              O I00000000200001068000N000000000000001106C 
093000374PAGG              O I00000001700001068000N000000000000001107C 
093000374PAGG              O I00000000800001068000N000000000000001108C 
093000374PAGG              O I00000001700001068000N000000000000001109C 
093000374PAGG              O  00000015000001068000N000000000000001110C 
093000375PAGG              O I00000000600001068000N000000000000001111C 
093000375PAGG              O I00000003500001068000N000000000000001112C 
093000375PAGG              O  00000013100001068000N000000000000001113C 
093000375PAGG              O  00000025800001068000N000000000000001114C 
093000375PAGG              O I00000004500001068000N000000000000001115C 
093000375PAGG              O  00000016700001068000N000000000000001116C 
093000375PAGG              O I00000000100001068000N000000000000001117C 
093000375PAGG              O I00000005700001068000N000000000000001118C 
093000375PAGG              O  00000011400001068000N000000000000001119C 
093000375PAGG              O  00000010900001068000N000000000000001120C 
093000375PAGG              O  00000041700001068000N000000000000001121C 
093000375PAGG              O  00000010000001068000N000000000000001122C 
093000375PAGG              O  00000018400001068000N000000000000001123C 
093000375PAGG              O I00000002000001068000N000000000000001124C 
093000375PAGG              O I00000000500001068000N000000000000001125C 
093000375PAGG              O I00000000500001068000N000000000000001126C 
093000375PAGG              O I00000001600001068000N000000000000001127C 
093000375PAGG              O I00000003500001068000N000000000000001128C 
093000375PAGG              O I00000005200001068000N000000000000001129C 
093000375PAGG              O  00000175600001068000N000000000000001130C 
093000375PAGG              O I00000000600001068000N000000000000001131C 
093000375PAGG              O I00000000100001068000N000000000000001132C 
093000375PAGG              O  00000034500001068000N000000000000001133C 
093000375PAGG              O  00000019800001068000N000000000000001134C 
093000375PAGG              O I00000005200001068000N000000000000001135C 
093000376PAGG              O I00000008000001068000N000000000000001136C 
093000376PAGG              O I00000001300001068000N000000000000001137C 
093000376PAGG              O I00000000800001068000N000000000000001138C 
093000376PAGG              O  00000040000001068000N000000000000001139C 
093000376PAGG              O  00000049900001068000N000000000000001140C 
093000376PAGG              O I00000002900001068000N000000000000001141C 
093000376PAGG              O  00000013600001068000N000000000000001142C 
093000376PAGG              O  00000019000001068000N000000000000001143C 
093000376PAGG              O I00000003200001068000N000000000000001144C 
093000376PAGG              O  00000070000001068000N000000000000001145C 
093000376PAGG              O  00000110000001068000N000000000000001146C 
093000376PAGG              O  00000014100001068000N000000000000001147C 
093000376PAGG              O  00000142200001068000N000000000000001148C 
093000376PAGG              O I00000005000001068000N000000000000001149C 
093000376PAGG              O I00000001200001068000N000000000000001150C 
093000376PAGG                Q00001781300001068000N000000000000001151C 
093000490PAGG             @   00000011800001068000N000000000000003556C 
093000016NAGI             I   00000000100000125000N000000000000002383C 
093000178NAGI             I   00000006500000120000N000000000000002640C 
093000513QAGII            @O X00000047900000458700 000000000000009260N 
093000513QAGII            Q   00000047900000458700 000000000000009261N 
093000446QAGII  L         @O I00000000100000200900 000000000000009106N 
093000446QAGII  L         Q   00000000100000200900 000000000000009107N 
093000483QAGIO            @O X00000048800000223700 000000000000009180N 
093000483QAGIO            Q   00000048800000223700 000000000000009181N 
093000007NAGM              O  00000030200000328600N000000000000002283C 
093000798NAGM                I00000009800000327400N000000000000002863C 
093000017NAGM   PRA        O  00000010000000194100N000000000000002400C 
093000105BAGNC                00000010000000197500 000000000000008380N 
093000122BAGNC            I   00000003400000197500 000000000000008410N 
093000284QAGNC            @O X00006433300000197600 000000000000008696N 
093000284QAGNC            Q   00006433300000197600 000000000000008697N 
093000000QAGNC  P         @ TI00000000500000253500 000000000000008216N 
093000337QAGNC  P         @O X00000028900000253500 000000000000008818N 
093000338QAGNC  P         Q   00000028900000253500 000000000000008820N 
093000010NAGO   PRE        O  00000125100000214500N000000000000002311C 
093000376PAGQ              O I00000001000000166700N000000000000001152C 
093000376PAGQ              O  00000020000000166700N000000000000001153C 
093000376PAGQ              O  00000030000000166700N000000000000001155C 
093000376PAGQ              O I00000009000000166700N000000000000001156C 
093000376PAGQ              O I00000000800000166700N000000000000001157C 
093000376PAGQ              O  00000020000000166700N000000000000001158C 
093000376PAGQ              O I00000001200000166700N000000000000001159C 
093000376PAGQ              O  00000100000000166700N000000000000001160C 
093000376PAGQ              O  00000018000000166700N000000000000001161C 
093000377PAGQ              O I00000005000000166700N000000000000001162C 
093000377PAGQ              O I00000005000000166700N000000000000001163C 
093000377PAGQ              O  00000012000000166700N000000000000001164C 
093000377PAGQ              O I00000003000000166700N000000000000001165C 
093000377PAGQ              O I00000007000000166700N000000000000001166C 
093000377PAGQ              O  00000013000000166700N000000000000001167C 
093000377PAGQ              O  00000017000000166700N000000000000001168C 
093000377PAGQ              O I00000008800000166700N000000000000001169C 
093000377PAGQ              O  00000021200000166700N000000000000001170C 
093000377PAGQ              O I00000008800000166700N000000000000001171C 
093000377PAGQ              O I00000005000000166700N000000000000001172C 
093000377PAGQ              O  00000016200000166700N000000000000001173C 
093000377PAGQ              O  00000030000000166700N000000000000001174C 
093000377PAGQ              O I00000003800000166700N000000000000001175C 
093000377PAGQ              O  00000010000000166700N000000000000001176C 
093000377PAGQ              O I00000000700000166700N000000000000001177C 
093000377PAGQ              O I00000002200000166700N000000000000001178C 
093000377PAGQ              O  00000012100000166700N000000000000001179C 
093000377PAGQ              O I00000007200000166700N000000000000001180C 
093000377PAGQ              O  00000010000000166700N000000000000001181C 
093000377PAGQ              O I00000002100000166700N000000000000001182C 
093000377PAGQ              O  00000060000000166700N000000000000001183C 
093000377PAGQ              O  00000080000000166700N000000000000001184C 
093000377PAGQ              O I00000007900000166700N000000000000001185C 
093000377PAGQ              O  00000050000000166700N000000000000001186C 
093000377PAGQ              O I00000002100000166700N000000000000001187C 
093000378PAGQ              O  00000040000000166700N000000000000001188C 
093000378PAGQ              O I00000007900000166700N000000000000001189C 
093000378PAGQ              O  00000085500000166700N000000000000001190C 
093000378PAGQ                Q00000733500000166700N000000000000001191C 
093000010NAGU             O   00000410800000903000N000000000000002319C 
093000230TAGU              F I00000002200000903000N000000000000002655C 
093000231TAGU             Q   00000002200000903000N000000000000002656C 
093000232TAGU             I   00000007800000903000N000000000000002657C 
093000385NAGU              F I00000005300000902500N000000000000002751C 
093000385NAGU              F  00000010000000902000N000000000000002752C 
093000385NAGU              F I00000002500000901800N000000000000002753C 
093000385NAGU              F  00000010000000901000N000000000000002754C 
093000385NAGU              F  00000012200000900100N000000000000002755C 
093000388NAGU              F I00000007800000900100N000000000000002756C 
093000388NAGU             I   00000002200000900000N000000000000002757C 
093000388NAGU             I   00000007800000900000N000000000000002758C 
093000016NAGX             O   00000099700000268500N000000000000002385C 
093000303QAGYS            @O X00000035000000131600 000000000000008743N 
093000303QAGYS            Q   00000035000000131600 000000000000008744N 
093000378PAGZ              O I00000001400001110800N000000000000001192C 
093000378PAGZ              O I00000000100001110800N000000000000001193C 
093000378PAGZ              O I00000000600001110800N000000000000001194C 
093000378PAGZ              O I00000000200001110800N000000000000001195C 
093000378PAGZ              O I00000000200001110800N000000000000001196C 
093000378PAGZ                Q00000002500001110800N000000000000001197C 
093000014NAH               O  00000397500000087000N000000000000002361C 
093000592TAH              @   00000010000000086800N000000000000002810C 
093000592TAH                 Q00000010000000086800N000000000000002811C 
093000799YAH                 I00000000900000087300N000000000000002864C 
093000014NAHC             O   00000010000000075400N000000000000002365C 
093000580QAHGP            @O X00000031000000539500 000000000000009438N 
093000580QAHGP            Q   00000031000000539500 000000000000009439N 
093000005NAHL             O   00000085000000398100N000000000000002266C 
093000016NAHL   PRA        O  00000030000000255700N000000000000002387C 
093000017NAHL   PRB        O  00000010900000248700N000000000000002391C 
093000018NAHL   PRC        O  00000010000000228400N000000000000002402C 
093000010NAHS             O   00000122200000137900N000000000000002315C 
093000055NAHT              O  00001071900000081100N000000000000002497C 
093000057NAI              O   00000137900000259500N000000000000002514C 
093000378PAIA              O  00000010000000471800N000000000000001198C 
093000378PAIA              O I00000005000000471800N000000000000001200C 
093000378PAIA                Q00000015000000471800N000000000000001201C 
093000005NAIF             O   00000180600000171000N000000000000002265C 
093000593NAIF              F  00000010000000171000N000000000000002812C 
093000340QAIMC            @O X00000034800000323900 000000000000008823N 
093000341QAIMC            Q   00000034800000323900 000000000000008824N 
093000009NAIN             O   00000069500000354400N000000000000002303C 
093000430NAIN             @   00000010000000354400N000000000000002768C 
093000439NAIN              F  00000010000000354400N000000000000002775C 
093000439NAIN              F  00000014700000354400N000000000000002776C 
093000439NAIN              F  00000010000000354500N000000000000002777C 
093000443NAIN              F I00000000100000354500N000000000000002778C 
093000459DAIN                I00000000100000354400N000000000000002780CT
093000040QAINV            T   00000010000000085400 000000000000008260N 
093000041QAINV            T   00000010000000085400 000000000000008261N 
093000418QAINV            @O X00001878600000085600 000000000000009027N 
093000418QAINV            Q   00001878600000085600 000000000000009028N 
093000522QAIQ             @O X00000084300000237600 000000000000009288N 
093000522QAIQ             Q   00000084300000237600 000000000000009291N 
093000011NAIR             O   00000338500000302100N000000000000002327C 
093000671QAIRM            @O X00000082100000549400 000000000000009681N 
093000671QAIRM            Q   00000082100000549400 000000000000009682N 
093000359QAIRT            @O X00000010000000113300 000000000000008851N 
093000359QAIRT            Q   00000010000000113300 000000000000008852N 
093000008NAIT             O   00000102800000466100N000000000000002298C 
093000146DAIT                I00000002800000466200N000000000000002629CT
093000058NAIV             O   00000857100000257500N000000000000002524C 
093000000QAIXG            @ TI00000000500000136700 000000000000008214N 
093000114QAIXG            @O X00000090000000136700 000000000000008392N 
093000115QAIXG            Q   00000090000000136700 000000000000008393N 
093000011NAIZ              O  00001348700000648500N000000000000002321C 
093000100DAIZ                I00000001500000642600N000000000000002574CT
093000012NAJG             O   00000434200000456200N000000000000002333C 
093000489BAJG             @   00000010000000455400N000000000000002788C 
093000490NAJG              F I00000006100000455300N000000000000002789C 
093000491YAJG             @   00000010000000455300N000000000000002790C 
093000491YAJG             I   00000009100000455200N000000000000002791C 
093000020QAKAM            @FT 00000020000000455900 000000000000008249N 
093000020QAKAM            @FT 00000010000000454900 000000000000008250N 
093000581QAKAM            @O X00001042400000456100 000000000000009443N 
093000581QAKAM            Q   00001042400000456100 000000000000009444N 
093000051AAKG              O  00000022600000018900N000000000000000921C 
093000090AAKG             @   00000100000000018500N000000000000000953C 
093000213AAKG              F  00000146600000018400N000000000000001005C 
093000221AAKG              F  00000020000000019000N000000000000001017C 
093000221AAKG              F  00000010000000019200N000000000000001018C 
093000012NAKO   A          O  00000100000000209500N000000000000002337C 
093000012NAKO   B          O  00000017900000274500N000000000000002341C 
093000015NAKP             O   00000591900000119400N000000000000002367C 
093000650QAKRX            @O X00000102800000242700 000000000000009612N 
093000650QAKRX            Q   00000102800000242700 000000000000009613N 
093000009TAL                TI00000000300000309300N000000000000002300C 
093000264QALCO            @O X00000030000000390300 000000000000008665N 
093000264QALCO            Q   00000030000000390300 000000000000008666N 
093000182QALCS            @O X00000070000000103000 000000000000008506N 
093000182QALCS            Q   00000070000000103000 000000000000008507N 
093000378PALD              O  00000010000000476300N000000000000001202C 
093000378PALD              O I00000006800000476300N000000000000001204C 
093000378PALD              O  00000019000000476300N000000000000001205C 
093000378PALD              O I00000000100000476300N000000000000001206C 
093000378PALD              O I00000000900000476300N000000000000001207C 
093000378PALD              O  00000014700000476300N000000000000001208C 
093000378PALD              O  00000014900000476300N000000000000001209C 
093000378PALD                Q00000066400000476300N000000000000001210C 
093000454TALD                I00000002000000476200N000000000000002877C 
093000454TALD                Q00000002000000476200N000000000000002881C 
093000013NALDW             O  00000287600000162500N000000000000002345C 
093000427NALDW             F  00000010000000162500N000000000000002765C 
093000589NALE             O   00000185000000492100N000000000000002804C 
093000379PALFA             O I00000005000000363100N000000000000001211C 
093000379PALFA               Q00000005000000363100N000000000000001212C 
093000260QALGN            @O X00000586500000561400 000000000000008661N 
093000260QALGN            Q   00000586500000561400 000000000000008662N 
093000288QALGT            @O X00000033700001076400 000000000000008705N 
093000288QALGT            Q   00000033700001076400 000000000000008706N 
093000449QALIM            @O X00000030100000025600 000000000000009122N 
093000449QALIM            Q   00000030100000025600 000000000000009124N 
093000108ZALJ             @   00000010000000149300N000000000000002589C 
093000108ZALJ             I   00000004900000149100N000000000000002590C 
093000589NALJ             O   00000659400000149500N000000000000002806C 
093000055NALK              O  00001176100000709700N000000000000002501C 
093000451QALKS            @O X00000369800000388800 000000000000009131N 
093000452QALKS            Q   00000369800000388800 000000000000009132N 
093000017NALL              O  00004593500000525000N000000000000002396C 
093000144QALLB            @O X00000020000000153000 000000000000008440N 
093000145QALLB            Q   00000020000000153000 000000000000008441N 
093000000QALLT            @ TI00000000500000143400 000000000000008213N 
093000112QALLT            @O X00000432400000143500 000000000000008389N 
093000112QALLT            Q   00000432400000143500 000000000000008390N 
093000352DALLT            I   00000004700000144100 000000000000008843NQ
093000056NALLY  PRA        O  00000112000000267200N000000000000002505C 
093000056NALLY  PRB        O  00000028500000267000N000000000000002510C 
093000169QALNY            @O X00000272700000611000 000000000000008489N 
093000169QALNY            Q   00000272700000611000 000000000000008490N 
093000228ZALNY                00000010000000610500 000000000000008601N 
093000228QALNY            @F  00000010000000610500 000000000000008602N 
093000228QALNY            @F  00000010000000611000 000000000000008603N 
093000229QALNY            @F I00000007700000611000 000000000000008604N 
093000229QALNY            @F I00000002300000611000 000000000000008605N 
093000231QALNY            @F I00000007700000611000 000000000000008606N 
093000231PALNY            @FT 00000010000000611000 000000000000008607N 
093000423QALNY            @F  00000010000000611500 000000000000009042N 
093000342QALOG            @O X00000013200000874500 000000000000008829N 
093000342QALOG            Q   00000013200000874500 000000000000008830N 
093000531QALOG            @F I00000005100000880500 000000000000009313N 
093000531QALOG            @F I00000004900000881300 000000000000009314N 
093000595QALOT            @O X00000045500000139000 000000000000009477N 
093000595QALOT            Q   00000045500000139000 000000000000009478N 
093000371QALSK            @O X00000100000000021700 000000000000008893N 
093000371QALSK            Q   00000100000000021700 000000000000008894N 
093000058NALSN             O  00000315200000271400N000000000000002520C 
093000660QALTR            @O X00002135400000315800 000000000000009638N 
093000660QALTR            Q   00002135400000315800 000000000000009639N 
093000678QALTR                00000030000000315100 000000000000009704N 
093000678QALTR            I   00000000600000314900 000000000000009706N 
093000694BALTR                00000010000000315000 000000000000009732N 
093000696QALTR            @F I00000009400000314900 000000000000009733N 
093000696QALTR            @F  00000010000000314900 000000000000009734N 
093000708QALTR            @F  00000010000000314900 000000000000009741N 
093000720ZALTR                00000010000000314900 000000000000009749N 
093000726PALTR            Q   00000010000000315000 000000000000009753N 
093000726PALTR                00000010000000315000 000000000000009754N 
093000860DALTR                00000010000000314900 000000000000009823NQ
093000898DALTR            I   00000006000000315800 000000000000009840NQ
093000107NALV             O   00000762000000902500N000000000000002583C 
093000137TALV             @   00000010000000902500N000000000000002616C 
093000137TALV             Q   00000010000000902500N000000000000002617C 
093000152QALVR            @O X00000079000000006500 000000000000008457N 
093000152QALVR            Q   00000079000000006500 000000000000008458N 
093000371QALXA            @O X00000051500000045400 000000000000008895N 
093000371QALXA            Q   00000051500000045400 000000000000008896N 
093000296QALXN            @O X00000927200001235100 000000000000008722N 
093000296QALXN            Q   00000927200001235100 000000000000008723N 
093000409DALXN            I   00000006800001230600 000000000000009000NQ
093000721QALXN            @F  00000010000001231300 000000000000009750N 
093000956QALXN            @F  00000010000001231300 000000000000009879N 
093000049QAMAG            @O X00000048400000231800 000000000000008271N 
093000050QAMAG            Q   00000048400000231800 000000000000008272N 
093000429QAMAP            @O X00000242200000139700 000000000000009063N 
093000429QAMAP            Q   00000242200000139700 000000000000009064N 
093000457QAMAT            @O X00008742600000168300 000000000000009138N 
093000458QAMAT            Q   00008742600000168300 000000000000009141N 
093000520QAMAT                00000010000000168200 000000000000009278N 
093000568PAMAT            @FT 00000010000000168200 000000000000009410N 
093000584PAMAT            @FT 00000010000000168200 000000000000009450N 
093000732QAMAT            @F  00000010000000168200 000000000000009763N 
093000825QAMAT            @F  00000010000000168300 000000000000009808N 
093000345QAMBA            @O X00000657400000248600 000000000000008834N 
093000345QAMBA            Q   00000657400000248600 000000000000008835N 
093000525QAMBC            @O X00000064700000208300 000000000000009295N 
093000525QAMBC            Q   00000064700000208300 000000000000009296N 
093000185QAMBC  W         @O I00000003400000122100 000000000000008511N 
093000185QAMBC  W         Q   00000003400000122100 000000000000008512N 
093000208QAMBI            @O X00000142300000109100 000000000000008568N 
093000208QAMBI            Q   00000142300000109100 000000000000008569N 
093000676QAMCC            @O X00000220800000121800 000000000000009690N 
093000676QAMCC            Q   00000220800000121800 000000000000009691N 
093000422QAMCF            @O X00000050000000015200 000000000000009035N 
093000422QAMCF            Q   00000050000000015200 000000000000009036N 
093000041AAMCO             O  00000500000000003370N000000000000000916C 
093000045QAMCX            T   00000010000000633000 000000000000008269N 
093000093QAMCX            @O X00000384300000634100 000000000000008359N 
093000093QAMCX            Q   00000384300000634100 000000000000008360N 
093000108NAME              O  00001300100000501300N000000000000002591C 
093000206DAME                I00000002800000501300N000000000000002646CN
093000210QAMED            @O X00000179200000148000 000000000000008571N 
093000210QAMED            Q   00000179200000148000 000000000000008572N 
093000612QAMED                00000010000000148000 000000000000009524N 
093000371DAMGN            I   00000000500001111100 000000000000008892NQ
093000669QAMGN            @O X00003391500001113000 000000000000009670N 
093000669QAMGN            Q   00003391500001113000 000000000000009672N 
093000012NAMH             O   00000184200000160600N000000000000002343C 
093000013NAMH   PRA        O  00000510000000245000N000000000000002351C 
093000417QAMIC            @O I00000002500000122200 000000000000009024N 
093000418QAMIC            Q   00000002500000122200 000000000000009025N 
093000006NAMID             O  00000041100000242600N000000000000002269C 
093000379PAMJ              O I00000001900000436200N000000000000001213C 
093000379PAMJ              O I00000000200000436200N000000000000001214C 
093000379PAMJ              O  00000014300000436200N000000000000001215C 
093000379PAMJ              O I00000000200000436200N000000000000001217C 
093000379PAMJ              O I00000000400000436200N000000000000001218C 
093000379PAMJ              O I00000000500000436200N000000000000001219C 
093000379PAMJ              O I00000007100000436200N000000000000001220C 
093000379PAMJ              O I00000002300000436200N000000000000001221C 
093000379PAMJ              O  00000015000000436200N000000000000001222C 
093000379PAMJ              O I00000000100000436200N000000000000001223C 
093000379PAMJ              O I00000003700000436200N000000000000001224C 
093000379PAMJ              O I00000000100000436200N000000000000001225C 
093000379PAMJ              O I00000000200000436200N000000000000001226C 
093000379PAMJ              O I00000000100000436200N000000000000001227C 
093000379PAMJ              O  00000014900000436200N000000000000001228C 
093000379PAMJ              O  00000024500000436200N000000000000001229C 
093000379PAMJ              O  00000025000000436200N000000000000001230C 
093000379PAMJ              O  00000020000000436200N000000000000001231C 
093000379PAMJ              O  00000020000000436200N000000000000001232C 
093000379PAMJ              O  00000030000000436200N000000000000001233C 
093000380PAMJ              O  00000015600000436200N000000000000001234C 
093000380PAMJ              O I00000005900000436200N000000000000001235C 
093000380PAMJ              O  00000014100000436200N000000000000001236C 
093000380PAMJ              O  00000013300000436200N000000000000001237C 
093000380PAMJ              O  00000010000000436200N000000000000001238C 
093000380PAMJ              O I00000000200000436200N000000000000001239C 
093000380PAMJ              O I00000006500000436200N000000000000001240C 
093000380PAMJ              O  00000010000000436200N000000000000001241C 
093000380PAMJ              O  00000020000000436200N000000000000001242C 
093000380PAMJ              O  00000010000000436200N000000000000001243C 
093000380PAMJ              O  00000020000000436200N000000000000001244C 
093000380PAMJ              O  00000015000000436200N000000000000001245C 
093000380PAMJ              O  00000010000000436200N000000000000001246C 
093000380PAMJ              O I00000003000000436200N000000000000001247C 
093000380PAMJ              O I00000005500000436200N000000000000001248C 
093000380PAMJ              O I00000004500000436200N000000000000001249C 
093000380PAMJ              O I00000009300000436200N000000000000001250C 
093000380PAMJ              O I00000000700000436200N000000000000001251C 
093000380PAMJ              O I00000002300000436200N000000000000001252C 
093000380PAMJ              O I00000000900000436200N000000000000001253C 
093000380PAMJ              O I00000006500000436200N000000000000001254C 
093000380PAMJ              O I00000002800000436200N000000000000001255C 
093000380PAMJ              O I00000007700000436200N000000000000001256C 
093000380PAMJ              O  00000010000000436200N000000000000001257C 
093000380PAMJ              O  00000012500000436200N000000000000001258C 
093000381PAMJ              O I00000006600000436200N000000000000001259C 
093000381PAMJ              O I00000003400000436200N000000000000001260C 
093000381PAMJ              O I00000006600000436200N000000000000001261C 
093000381PAMJ              O I00000008400000436200N000000000000001262C 
093000381PAMJ                Q00000421800000436200N000000000000001263C 
093000188QAMKR            @O X00000490900000055800 000000000000008524N 
093000188QAMKR            Q   00000490900000055800 000000000000008525N 
093000381PAMLP             O  00000064700000171200N000000000000001264C 
093000381PAMLP             O  00000085300000171200N000000000000001266C 
093000381PAMLP             O  00000050000000171200N000000000000001267C 
093000381PAMLP             O I00000000800000171200N000000000000001268C 
093000381PAMLP             O  00000159200000171200N000000000000001269C 
093000381PAMLP             O  00000105000000171200N000000000000001270C 
093000381PAMLP             O  00000095000000171200N000000000000001271C 
093000381PAMLP             O I00000005000000171200N000000000000001272C 
093000381PAMLP             O I00000000100000171200N000000000000001273C 
093000381PAMLP             O I00000009500000171200N000000000000001274C 
093000381PAMLP             O  00000053000000171200N000000000000001275C 
093000381PAMLP             O  00000050000000171200N000000000000001276C 
093000381PAMLP             O I00000004500000171200N000000000000001277C 
093000381PAMLP             O I00000005600000171200N000000000000001278C 
093000381PAMLP             O  00000025000000171200N000000000000001279C 
093000381PAMLP             O I00000000100000171200N000000000000001280C 
093000381PAMLP             O  00000054800000171200N000000000000001281C 
093000382PAMLP             O  00000064600000171200N000000000000001282C 
093000382PAMLP             O I00000000100000171200N000000000000001283C 
093000382PAMLP             O  00000113300000171200N000000000000001284C 
093000382PAMLP             O  00000047000000171200N000000000000001285C 
093000382PAMLP             O I00000003000000171200N000000000000001286C 
093000382PAMLP             O I00000001000000171200N000000000000001287C 
093000382PAMLP             O  00000052300000171200N000000000000001288C 
093000382PAMLP             O  00000033600000171200N000000000000001289C 
093000382PAMLP             O I00000008400000171200N000000000000001290C 
093000382PAMLP             O  00000022800000171200N000000000000001291C 
093000382PAMLP             O  00000017200000171200N000000000000001292C 
093000382PAMLP             O I00000008000000171200N000000000000001293C 
093000382PAMLP             O  00000174800000171200N000000000000001294C 
093000382PAMLP             O  00000010100000171200N000000000000001295C 
093000382PAMLP             O I00000000400000171200N000000000000001296C 
093000382PAMLP             O  00000013600000171200N000000000000001297C 
093000382PAMLP             O I00000000300000171200N000000000000001298C 
093000382PAMLP             O  00000015200000171200N000000000000001299C 
093000382PAMLP             O  00000105200000171200N000000000000001300C 
093000382PAMLP             O  00000058000000171200N000000000000001301C 
093000382PAMLP             O  00000081600000171200N000000000000001302C 
093000382PAMLP             O I00000000300000171200N000000000000001303C 
093000382PAMLP             O  00000102200000171200N000000000000001304C 
093000382PAMLP             O  00000030000000171200N000000000000001305C 
093000383PAMLP             O  00000023900000171200N000000000000001306C 
093000383PAMLP             O I00000000800000171200N000000000000001307C 
093000383PAMLP             O I00000000300000171200N000000000000001308C 
093000383PAMLP             O I00000002700000171200N000000000000001309C 
093000383PAMLP             O I00000005200000171200N000000000000001310C 
093000383PAMLP             O I00000003500000171200N000000000000001311C 
093000383PAMLP             O  00000037800000171200N000000000000001312C 
093000383PAMLP             O  00000022200000171200N000000000000001313C 
093000383PAMLP             O I00000006100000171200N000000000000001314C 
093000383PAMLP             O I00000000700000171200N000000000000001315C 
093000383PAMLP             O  00000043100000171200N000000000000001316C 
093000383PAMLP             O  00000012000000171200N000000000000001317C 
093000383PAMLP             O I00000009700000171200N000000000000001318C 
093000383PAMLP             O I00000002900000171200N000000000000001319C 
093000383PAMLP             O I00000001200000171200N000000000000001320C 
093000383PAMLP             O  00000023800000171200N000000000000001321C 
093000383PAMLP             O  00000078700000171200N000000000000001322C 
093000383PAMLP             O  00000170000000171200N000000000000001323C 
093000383PAMLP             O  00000028300000171200N000000000000001324C 
093000383PAMLP             O  00000023000000171200N000000000000001325C 
093000383PAMLP             O  00000022500000171200N000000000000001326C 
093000383PAMLP             O  00000080000000171200N000000000000001327C 
093000383PAMLP             O  00000097500000171200N000000000000001328C 
093000384PAMLP             O I00000002500000171200N000000000000001329C 
093000384PAMLP             O  00000030000000171200N000000000000001330C 
093000384PAMLP             O  00000150000000171200N000000000000001331C 
093000384PAMLP             O  00000062500000171200N000000000000001332C 
093000384PAMLP             O I00000005000000171200N000000000000001333C 
093000384PAMLP             O  00000020000000171200N000000000000001334C 
093000384PAMLP             O  00000040000000171200N000000000000001335C 
093000384PAMLP             O  00000012500000171200N000000000000001336C 
093000384PAMLP             O  00000030300000171200N000000000000001337C 
093000384PAMLP             O  00000020700000171200N000000000000001338C 
093000384PAMLP             O  00000096500000171200N000000000000001339C 
093000384PAMLP             O  00000015500000171200N000000000000001340C 
093000384PAMLP             O  00000102200000171200N000000000000001341C 
093000384PAMLP             O  00000161300000171200N000000000000001342C 
093000384PAMLP             O I00000003100000171200N000000000000001343C 
093000384PAMLP             O  00000300000000171200N000000000000001344C 
093000384PAMLP             O  00000187900000171200N000000000000001345C 
093000384PAMLP             O  00000090000000171200N000000000000001346C 
093000384PAMLP             O  00000011100000171200N000000000000001347C 
093000384PAMLP             O I00000008900000171200N000000000000001348C 
093000384PAMLP             O I00000000500000171200N000000000000001349C 
093000384PAMLP             O  00000080000000171200N000000000000001350C 
093000384PAMLP             O I00000003400000171200N000000000000001351C 
093000385PAMLP             O I00000006600000171200N000000000000001352C 
093000385PAMLP             O  00000050000000171200N000000000000001353C 
093000385PAMLP             O  00000025700000171200N000000000000001354C 
093000385PAMLP             O  00000033800000171200N000000000000001355C 
093000385PAMLP             O  00000020000000171200N000000000000001356C 
093000385PAMLP             O  00000046200000171200N000000000000001357C 
093000385PAMLP             O I00000000600000171200N000000000000001358C 
093000385PAMLP             O  00000023200000171200N000000000000001359C 
093000385PAMLP             O  00000020000000171200N000000000000001360C 
093000385PAMLP             O  00000300000000171200N000000000000001361C 
093000385PAMLP             O  00000200000000171200N000000000000001362C 
093000385PAMLP             O  00000030000000171200N000000000000001363C 
093000385PAMLP             O  00000100000000171200N000000000000001364C 
093000385PAMLP             O  00000050000000171200N000000000000001365C 
093000385PAMLP               Q00004766500000171200N000000000000001366C 
093000558QAMNB            @O I00000005600000248100 000000000000009386N 
093000558QAMNB            Q   00000005600000248100 000000000000009387N 
093000223QAMOT            @O X00000030000000125000 000000000000008591N 
093000223QAMOT            Q   00000030000000125000 000000000000008592N 
093000286QAMOV            @O X00000012000000222400 000000000000008702N 
093000286QAMOV            Q   00000012000000222400 000000000000008703N 
093000015NAMP   PRA        O  00000057200000256300N000000000000002369C 
093000015AAMPE             O  00000121500000070500N000000000000000906C 
093000247QAMRB            @O X00000139000000092900 000000000000008633N 
093000247QAMRB            Q   00000139000000092900 000000000000008634N 
093000013NAMRC             O  00000172600000092100N000000000000002353C 
093000061NAMRE             O  00000186900000164000N000000000000002542C 
093000642TAMRE             O X00000010000000164800N000000000000002844C 
093000642TAMRE               Q00000010000000164800N000000000000002845C 
093000204QAMRI            @O X00000665300000098800 000000000000008560N 
093000204QAMRI            Q   00000665300000098800 000000000000008562N 
093000787KAMRI            @F  00000020000000098100 000000000000009788N 
093000788KAMRI            @F  00000020000000098100 000000000000009789N 
093000440QAMRN            @O X00002395200000016100 000000000000009087N 
093000440QAMRN            Q   00002395200000016100 000000000000009088N 
093000331QAMRS            @O X00000030200000029900 000000000000008797N 
093000332QAMRS            Q   00000030200000029900 000000000000008803N 
093000120QAMSC            @O X00000553800000014600 000000000000008402N 
093000120QAMSC            Q   00000553800000014600 000000000000008405N 
093000463QAMSF            @O X00000132400000412000 000000000000009150N 
093000463QAMSF            Q   00000132400000412000 000000000000009151N 
093000424QAMSG            @O X00000058200000462000 000000000000009044N 
093000424QAMSG            Q   00000058200000462000 000000000000009046N 
093000388QAMSW  A         @O X00000108000000098300 000000000000008933N 
093000388QAMSW  A         Q   00000108000000098300 000000000000008934N 
093000015NAMTD             O  00000508300000292600N000000000000002371C 
093000056NAMTG             O  00000140200000149500N000000000000002503C 
093000617QAMWD            @O X00000061500000359100 000000000000009546N 
093000617QAMWD            Q   00000061500000359100 000000000000009547N 
093000088QAMZN            @ TI00000001500003892300 000000000000008343N 
093000138KAMZN            I   00000000500003892400 000000000000008433N 
093000306BAMZN            I   00000008000003891600 000000000000008748N 
093000397QAMZN            T   00000010000003891600 000000000000008960N 
093000399QAMZN            T   00000010000003891600 000000000000008972N 
093000507BAMZN                00000010000003892300 000000000000009250N 
093000590QAMZN            @O X00002249800003888800 000000000000009463N 
093000591QAMZN            Q   00002249800003888800 000000000000009464N 
093000594QAMZN            @F I00000000100003889000 000000000000009473N 
093000594QAMZN            @F I00000000400003889000 000000000000009475N 
093000607QAMZN            I   00000006100003887600 000000000000009512N 
093000652YAMZN                00000010000003887550 000000000000009617N 
093000795PAMZN            Q   00000004100003887500 000000000000009794N 
093000795PAMZN            I   00000004100003887500 000000000000009795N 
093000881QAMZN            @F I00000004500003889600 000000000000009832N 
093000378NAN              O   00000554900000493700N000000000000002743C 
093000386QANAC            @O X00000237800000163900 000000000000008925N 
093000386QANAC            Q   00000237800000163900 000000000000008926N 
093000000QANAD            @ TI00000000500000017400 000000000000008215N 
093000583QANAD            @O X00010123500000017500 000000000000009447N 
093000583QANAD            Q   00010123500000017500 000000000000009448N 
093000676QANAD            @F I00000009000000017500 000000000000009692N 
093000676QANAD            @F  00000300000000017500 000000000000009693N 
093000676QANAD            @F I00000005000000017500 000000000000009694N 
093000676QANAD            @F I00000005000000017500 000000000000009695N 
093000676QANAD            @F  00000041000000017500 000000000000009696N 
093000679KANAD                00000820000000017350 000000000000009713N 
093000752QANAD            I   00000009000000017500 000000000000009769N 
093000752QANAD                00000010000000017400 000000000000009770N 
093000755KANAD                00000250000000017400 000000000000009772N 
093000756KANAD            @F  00000430000000017400 000000000000009773N 
093000659QANAT            @O X00000013800001107200 000000000000009634N 
093000659QANAT            Q   00000013800001107200 000000000000009635N 
093000364QANCI            @O X00000013300000016100 000000000000008863N 
093000364QANCI            Q   00000013300000016100 000000000000008864N 
093000678QANCX            @O X00000036000000154300 000000000000009705N 
093000678QANCX            Q   00000036000000154300 000000000000009707N 
093000537QANDE            @O X00000079900000872400 000000000000009318N 
093000537QANDE            Q   00000079900000872400 000000000000009320N 
093000076QANEN            @O X00000074400000278900 000000000000008320N 
093000076QANEN            Q   00000074400000278900 000000000000008322N 
093000058NANF              O  00002348900000318300N000000000000002530C 
093000211NANF              F  00000030000000318600N000000000000002649C 
093000251BANF             I   00000008300000317500N000000000000002660C 
093000290ZANF             @   00000010000000317600N000000000000002696C 
093000290ZANF             @   00000010000000317600N000000000000002697C 
093000291TANF              FTI00000008300000317500N000000000000002698C 
093000291PANF              FTI00000008300000317800N000000000000002699C 
093000292PANF             T   00000020000000317800N000000000000002703C 
093000292NANF              F I00000008300000318200N000000000000002704C 
093000332PANF             T   00000010000000317800N000000000000002735C 
093000420QANGI            @O X00001010200000136800 000000000000009030N 
093000420QANGI            Q   00001010200000136800 000000000000009031N 
093000214QANGO            @O X00000030100000156900 000000000000008577N 
093000215QANGO            Q   00000030100000156900 000000000000008579N 
093000011NANH              O  00002785500000042800N000000000000002323C 
093000253BANH              F  00000010000000042800N000000000000002661C 
093000224QANIK            @O X00000113900000342000 000000000000008594N 
093000225QANIK            Q   00000113900000342000 000000000000008595N 
093000372QANIP            @O X00000034600000150000 000000000000008902N 
093000372QANIP            Q   00000034600000150000 000000000000008903N 
093000027PANR             T   00000010000000063100N000000000000002477C 
093000028PANR             T   00000020000000063100N000000000000002478C 
093000028PANR             T   00000010000000063100N000000000000002479C 
093000590NANR              O  00004258100000063300N000000000000002808C 
093000607PANR             Q   00000010000000063100N000000000000002833C 
093000607PANR             @   00000010000000063100N000000000000002834C 
093000609DANR             @   00000010000000062950N000000000000002835CT
093000610KANR             @   00000010000000062800N000000000000002836C 
093000611KANR             @   00000020000000062800N000000000000002837C 
093000619NANR              F I00000003600000063100N000000000000002839C 
093000719JANR             @   00000060000000062800N000000000000002850C 
093000735TANR             @   00000010000000062900N000000000000002857C 
093000735TANR             Q   00000010000000062900N000000000000002858C 
093000736NANR             I   00000005500000063000N000000000000002859C 
093000738KANR             @   00000030000000062800N000000000000002860C 
093000225QANSS            @O X00000087400000849000 000000000000008596N 
093000225QANSS            Q   00000087400000849000 000000000000008597N 
093000435QANTH            @O X00000115000000029500 000000000000009075N 
093000435QANTH            Q   00000115000000029500 000000000000009076N 
093000044AANV              O  00001311600000033100N000000000000000918C 
093000068PANV             T   00000016500000033900N000000000000000942C 
093000108KANV              F  00000030000000033300N000000000000000958C 
093000116KANV              F  00000060000000033300N000000000000000981C 
093000118KANV              F  00000060000000033300N000000000000000982C 
093000606DANV             @   00000051800000033100N000000000000003569CT
093000635DANV             @   00000038200000033100N000000000000003577CT
093000637DANV             @   00000225000000033100N000000000000003578CT
093000645DANV             @   00000045000000033100N000000000000003579CT
093000013NANW             O   00000190300000100600N000000000000002349C 
093000385PAOA              O I00000000900000434500N000000000000001367C 
093000385PAOA              O I00000000100000434500N000000000000001368C 
093000385PAOA              O I00000002800000434500N000000000000001369C 
093000385PAOA              O I00000002500000434500N000000000000001370C 
093000385PAOA              O I00000000100000434500N000000000000001371C 
093000385PAOA              O I00000000500000434500N000000000000001372C 
093000385PAOA              O  00000018100000434500N000000000000001373C 
093000386PAOA              O  00000011800000434500N000000000000001375C 
093000386PAOA              O I00000002300000434500N000000000000001376C 
093000386PAOA              O I00000005500000434500N000000000000001377C 
093000386PAOA              O I00000001200000434500N000000000000001378C 
093000386PAOA              O  00000050000000434500N000000000000001379C 
093000386PAOA                Q00000095800000434500N000000000000001380C 
093000957DAOA              4  00000013800000434500N000000000000003591CT
093000055NAOI             O   00000127500000029400N000000000000002499C 
093000386PAOK              O I00000001900000317500N000000000000001381C 
093000386PAOK              O I00000005600000317500N000000000000001382C 
093000386PAOK              O I00000000100000317500N000000000000001383C 
093000386PAOK              O  00000044800000317500N000000000000001384C 
093000386PAOK              O  00000050600000317500N000000000000001386C 
093000386PAOK                Q00000103000000317500N000000000000001387C 
093000058NAOL             O   00000346700000441300N000000000000002522C 
093000304BAOL             I   00000008300000441100N000000000000002727C 
093000386PAOM              O I00000000100000339100N000000000000001388C 
093000386PAOM              O I00000007100000339100N000000000000001389C 
093000386PAOM              O I00000000500000339100N000000000000001390C 
093000386PAOM              O  00000052400000339100N000000000000001391C 
093000386PAOM              O  00000031300000339100N000000000000001393C 
093000386PAOM              O  00000020600000339100N000000000000001394C 
093000387PAOM              O  00000025000000339100N000000000000001395C 
093000387PAOM              O I00000003100000339100N000000000000001396C 
093000387PAOM                Q00000140100000339100N000000000000001397C 
093000057NAON              O  00001178900000820000N000000000000002516C 
093000281NAON             @   00000010000000820000N000000000000002669C 
093000597NAON             @   00000010000000820000N000000000000002830C 
093000387PAOR              O  00000014800000378600N000000000000001398C 
093000387PAOR              O I00000001000000378600N000000000000001400C 
093000387PAOR              O I00000000200000378600N000000000000001401C 
093000387PAOR              O  00000025700000378600N000000000000001402C 
093000387PAOR              O  00000034300000378600N000000000000001403C 
093000387PAOR                Q00000076000000378600N000000000000001404C 
093000490PAOR             @   00000037000000378300N000000000000003551C 
093000991DAOR              4  00000011000000378600N000000000000003594CT
093000013NAOS             O   00000514200000531700N000000000000002347C 
093000487QAOSL            @O X00000124100000074700 000000000000009196N 
093000487QAOSL            Q   00000124100000074700 000000000000009197N 
093000469QAPAG  F         @O I00000006600000156500 000000000000009165N 
093000469QAPAG  F         Q   00000006600000156500 000000000000009166N 
093000062NAPD              O  00001208100001078800N000000000000002544C 
093000490QAPEI            @O I00000002300000437100 000000000000009212N 
093000490QAPEI            Q   00000002300000437100 000000000000009213N 
093000015NAPF              O  00000217000000164600N000000000000002375C 
093000216QAPFC            @O I00000004300000404600 000000000000008585N 
093000217QAPFC            Q   00000004300000404600 000000000000008586N 
093000015NAPL             O   00000246200000333200N000000000000002373C 
093000605DAPL             @   00000020000000333200N000000000000002832CT
093000655NAPL              F  00000010000000332600N000000000000002846C 
093000065NAPO              O  00001313500000302000N000000000000002548C 
093000077NAPO              F  00000036500000303000N000000000000002559C 
093000243QAPOG            @O X00000095400000344900 000000000000008621N 
093000243QAPOG            Q   00000095400000344900 000000000000008622N 
093000374QAPOL            @O X00001015500000257500 000000000000008910N 
093000374QAPOL            Q   00001015500000257500 000000000000008911N 
093000546KAPOL            @F  00000010000000257400 000000000000009354N 
093000665QAPPY            @O X00000403600000019100 000000000000009661N 
093000665QAPPY            Q   00000403600000019100 000000000000009662N 
093000084QAPRI            @O X00000055500000019400 000000000000008337N 
093000084QAPRI            Q   00000055500000019400 000000000000008338N 
093000678QAPSA            @O X00000042200000222800 000000000000009708N 
093000678QAPSA            Q   00000042200000222800 000000000000009710N 
093000015AAPTS             O  00000010000000079600N000000000000000908C 
093000012NAPU             O   00000115800000427000N000000000000002335C 
093000106TAPU              FT 00000010000000428000N000000000000002576C 
093000291TAPU               TI00000000200000427800N000000000000002700C 
093000291ZAPU             I   00000000200000427800N000000000000002701C 
093000292QARAY            @O X00001277100000084500 000000000000008711N 
093000292QARAY            Q   00001277100000084500 000000000000008712N 
093000059NARC             O   00000291600000079900N000000000000002534C 
093000501QARCC            @O X00001917300000174100 000000000000009230N 
093000502QARCC            Q   00001917300000174100 000000000000009231N 
093000197QARCI            @O X00000010000000031100 000000000000008553N 
093000197QARCI            Q   00000010000000031100 000000000000008554N 
093000056NARCO             O  00000676600000119200N000000000000002508C 
093000587QARCP            @O X00001958000000127400 000000000000009454N 
093000587QARCP            Q   00001958000000127400 000000000000009455N 
093000999QARCP            I   00000004600000127400 000000000000009903N 
093000077QARCW            @O X00000179800000234200 000000000000008326N 
093000077QARCW            Q   00000179800000234200 000000000000008327N 
093000011NARCX             O  00000050000000196000N000000000000002331C 
093000065NARDC             O  00000532100000180100N000000000000002550C 
093000196QARDN  A         @O X00000030000001263100 000000000000008551N 
093000196QARDN  A         Q   00000030000001263100 000000000000008552N 
093000057NARE             O   00000251000000633300N000000000000002512C 
093000594NARE   PRE        O  00000010300000216300N000000000000002813C 
093000572QAREX            @O X00000226600000191500 000000000000009416N 
093000572QAREX            Q   00000226600000191500 000000000000009417N 
093000056TARG             T   00000010000001077400N000000000000002507C 
093000058NARG             O   00000210000001075200N000000000000002526C 
093000123NARG              F  00000010000001073700N000000000000002604C 
093000557DARG             @   00000010000001078200N000000000000002799CT
093000387PARGT             O I00000001700000202100N000000000000001405C 
093000387PARGT             O I00000008300000202100N000000000000001406C 
093000387PARGT               Q00000010000000202100N000000000000001407C 
093000059NARH   PRC        O  00000074800000234600N000000000000002538C 
093000238QARIA            @O X00012758800000043400 000000000000008610N 
093000238QARIA            Q   00012758800000043400 000000000000008611N 
093000307KARIA                00000025000000043500 000000000000008755N 
093000408PARIA            @FT 00000010000000043500 000000000000008996N 
093000410QARIA                00000027000000043500 000000000000009002N 
093000412KARIA                00000100000000043500 000000000000009003N 
093000499QARIA            @F  00000151700000043500 000000000000009225N 
093000499QARIA            @F  00000048300000043500 000000000000009226N 
093000499QARIA            @F  00000351700000043500 000000000000009227N 
093000499QARIA            @F  00000037500000043500 000000000000009228N 
093000499QARIA            @F  00000010800000043500 000000000000009229N 
093000185QARII            @O X00000172200000441500 000000000000008510N 
093000185QARII            Q   00000172200000441500 000000000000008513N 
093000616QARKR            @O X00000040000000217500 000000000000009535N 
093000616QARKR            Q   00000040000000217500 000000000000009536N 
093000431NARL             O   00000010000000057300N000000000000002769C 
093000195QARLP            @O X00000090400000748100 000000000000008545N 
093000195QARLP            Q   00000090400000748100 000000000000008546N 
093000001QARMH            @ TI00000000500000498000 000000000000008222N 
093000203QARMH            @O X00000770800000498000 000000000000008559N 
093000204QARMH            Q   00000770800000498000 000000000000008561N 
093000369QARMH            @F  00000010000000498700 000000000000008886N 
093000433DARMH                00000010000000498050 000000000000009066NQ
093000567QARMH            I   00000001800000498100 000000000000009409N 
093000983KARMH            @F  00000015000000498700 000000000000009892N 
093000983QARMH            @F  00000030000000498700 000000000000009893N 
093000983QARMH            @F  00000010000000498800 000000000000009894N 
093000984QARMH            @F  00000010000000498800 000000000000009895N 
093000990QARMH            @F  00000020000000498800 000000000000009898N 
093000993QARMH                00000020000000498800 000000000000009899N 
093000993QARMH            I   00000005000000498800 000000000000009900N 
093000160PARNA            T   00000010000000055500 000000000000008467N 
093000201PARNA            T   00000100000000055000 000000000000008557N 
093000201PARNA            T   00000040000000054900 000000000000008558N 
093000301QARNA            @O X00002432100000055400 000000000000008737N 
093000301QARNA            Q   00002432100000055400 000000000000008738N 
093000307QARNA            I   00000005000000055200 000000000000008756N 
093000307QARNA                00000100000000055200 000000000000008757N 
093000393QARNA                00000010000000055000 000000000000008942N 
093000393QARNA                00000220000000055000 000000000000008943N 
093000393QARNA                00000050000000055000 000000000000008944N 
093000393QARNA                00000065000000055000 000000000000008945N 
093000896ZARNA            @F  00000022000000055400 000000000000009839N 
093000382NARO              O  00001100400000081300N000000000000002747C 
093000383NARO             @   00000020000000081300N000000000000002750C 
093000265QAROW            @O X00000030100000257800 000000000000008668N 
093000265QAROW            Q   00000030100000257800 000000000000008669N 
093000594NARP             O   00000121600000201000N000000000000002817C 
